{
  "_format": "hh-sol-artifact-1",
  "contractName": "CertificateRegistry",
  "sourceName": "contracts/CertificateRegistry.sol",
  "abi": [
    {
      "inputs": [],
      "stateMutability": "nonpayable",
      "type": "constructor"
    },
    {
      "anonymous": false,
      "inputs": [
        {
          "indexed": true,
          "internalType": "string",
          "name": "certificateId",
          "type": "string"
        },
        {
          "indexed": true,
          "internalType": "bytes32",
          "name": "certificateHash",
          "type": "bytes32"
        },
        {
          "indexed": false,
          "internalType": "uint256",
          "name": "issuedAt",
          "type": "uint256"
        }
      ],
      "name": "CertificateRegistered",
      "type": "event"
    },
    {
      "inputs": [
        {
          "internalType": "string",
          "name": "certificateId",
          "type": "string"
        }
      ],
      "name": "certificateExists",
      "outputs": [
        {
          "internalType": "bool",
          "name": "",
          "type": "bool"
        }
      ],
      "stateMutability": "view",
      "type": "function"
    },
    {
      "inputs": [
        {
          "internalType": "string",
          "name": "certificateId",
          "type": "string"
        }
      ],
      "name": "getCertificate",
      "outputs": [
        {
          "internalType": "bytes32",
          "name": "certificateHash",
          "type": "bytes32"
        },
        {
          "internalType": "uint256",
          "name": "issuedAt",
          "type": "uint256"
        },
        {
          "internalType": "bool",
          "name": "exists",
          "type": "bool"
        }
      ],
      "stateMutability": "view",
      "type": "function"
    },
    {
      "inputs": [
        {
          "internalType": "bytes32",
          "name": "certificateHash",
          "type": "bytes32"
        }
      ],
      "name": "isHashUsed",
      "outputs": [
        {
          "internalType": "bool",
          "name": "",
          "type": "bool"
        }
      ],
      "stateMutability": "view",
      "type": "function"
    },
    {
      "inputs": [],
      "name": "owner",
      "outputs": [
        {
          "internalType": "address",
          "name": "",
          "type": "address"
        }
      ],
      "stateMutability": "view",
      "type": "function"
    },
    {
      "inputs": [
        {
          "internalType": "string",
          "name": "certificateId",
          "type": "string"
        },
        {
          "internalType": "bytes32",
          "name": "certificateHash",
          "type": "bytes32"
        }
      ],
      "name": "registerCertificate",
      "outputs": [],
      "stateMutability": "nonpayable",
      "type": "function"
    },
    {
      "inputs": [
        {
          "internalType": "string",
          "name": "certificateId",
          "type": "string"
        },
        {
          "internalType": "bytes32",
          "name": "certificateHash",
          "type": "bytes32"
        }
      ],
      "name": "verifyCertificate",
      "outputs": [
        {
          "internalType": "bool",
          "name": "",
          "type": "bool"
        }
      ],
      "stateMutability": "view",
      "type": "function"
    }
  ],
  "bytecode": "0x60a060405234801561001057600080fd5b503360805260805161063161002f600039600060df01526106316000f3fe608060405234801561001057600080fd5b50600436106100625760003560e01c80630655f0371461006757806307b86b731461008f57806320021d8b146100a25780632fb82a33146100c55780638da5cb5b146100da578063ed0f2e7514610119575b600080fd5b61007a610075366004610539565b610149565b60405190151581526020015b60405180910390f35b61007a61009d36600461056e565b610176565b61007a6100b03660046105b3565b60009081526001602052604090205460ff1690565b6100d86100d336600461056e565b6101d7565b005b6101017f000000000000000000000000000000000000000000000000000000000000000081565b6040516001600160a01b039091168152602001610086565b61012c610127366004610539565b61043a565b604080519384526020840192909252151590820152606001610086565b6000808260405161015a91906105cc565b9081526040519081900360200190206002015460ff1692915050565b60008060008460405161018991906105cc565b908152604080519182900360209081018320606084018352805484526001810154918401919091526002015460ff16158015918301829052919250906101cf5750805183145b949350505050565b600082511161022d5760405162461bcd60e51b815260206004820152601e60248201527f43657274696669636174652049442063616e6e6f7420626520656d707479000060448201526064015b60405180910390fd5b8061027a5760405162461bcd60e51b815260206004820152601f60248201527f436572746966696361746520686173682063616e6e6f74206265207a65726f006044820152606401610224565b60008260405161028a91906105cc565b9081526040519081900360200190206002015460ff16156103015760405162461bcd60e51b815260206004820152602b60248201527f436572746966696361746520616c72656164792072656769737465726564207760448201526a1a5d1a081d1a1a5cc8125160aa1b6064820152608401610224565b60008181526001602052604090205460ff16156103725760405162461bcd60e51b815260206004820152602960248201527f436572746966696361746520776974682074686973206861736820616c72656160448201526864792065786973747360b81b6064820152608401610224565b604080516060810182528281524260208201819052600182840152915160009061039d9086906105cc565b9081526040805191829003602090810183208451815584820151600180830191909155948301516002909101805491151560ff19928316179055600087815291859052919020805490911690921790915582906103fb9085906105cc565b604051908190038120838252907fe07405b77be86dbddc58bcf7acafa59fe051093cf8f3b8a66c6773ebb864af309060200160405180910390a3505050565b60008060008060008560405161045091906105cc565b90815260408051602092819003830181206060820183528054808352600182015494830185905260029091015460ff161515919092018190529097919650945092505050565b634e487b7160e01b600052604160045260246000fd5b600082601f8301126104bd57600080fd5b813567ffffffffffffffff808211156104d8576104d8610496565b604051601f8301601f19908116603f0116810190828211818310171561050057610500610496565b8160405283815286602085880101111561051957600080fd5b836020870160208301376000602085830101528094505050505092915050565b60006020828403121561054b57600080fd5b813567ffffffffffffffff81111561056257600080fd5b6101cf848285016104ac565b6000806040838503121561058157600080fd5b823567ffffffffffffffff81111561059857600080fd5b6105a4858286016104ac565b95602094909401359450505050565b6000602082840312156105c557600080fd5b5035919050565b6000825160005b818110156105ed57602081860181015185830152016105d3565b50600092019182525091905056fea2646970667358221220ba5f8f6d718aec2013e9a623fd0a523ad268569c2e4d8c34b35e59756f5e70eb64736f6c63430008140033",
  "linkReferences": {},
  "deployedLinkReferences": {}
}